:0F00000075B00102003975A0C012009675A030CE
:0F000F0012009675A00C12009675A003120096B1
:0F001E0075A0C012009675A03012009675A00C48
:0E002D0012009675A0031200960200397F03A0
:10003B001200F81200CD75A0FF120096EF020051CE
:10004B00B4000802010DB405F780B01A0DEA2DFAC1
:0F005B008AA0E590B400F4EA8AA0120096A8A04B
:0F006A00747F58F875A0FFE590F5A03097F9E87E
:10007900B5A00DEF04FF1200E080C08C8002009F44
:0F008900EF14FF1200E080B38C800200B37D0201
:100098007E01DEFEDDFA2275A0F612009675A0FF3D
:0E00A80012009675A000120096809175A0FFC0
:0F00B60012009675A00012009675A0FF1200961A
:0E00C50075A000120096014475A0AA120096C4
:1000D30075A05512009675A0AA12009622BF0007BC
:0E00E30075803F02010D22BF010475800622C8
:0E00F100BF020475805B22BF030475804F229E
:0E00FF00BF040475806622BF050475806D2263
:0F010D001200961200CD1200961200CD1200962D
:02011C000139A7
:00000001FF
