:0E0000007580101200E212009FE580B400032C
:0E000E000200FE1D0AE590B400F98AA08DB034
:0F001C0012009FA8A0A9B075A00075B000E590D4
:0F002B00540FF5A03094F7E5902323232354F0CE
:0F003A0085B0F053F00F45F0F5A03095EBE59051
:0F004900540FF5B03096F7E5902323232354F09E
:1000580085B0F053F00F45F0F5B03097EBE8ABA062
:10006800ACB0B5A01BE9B5B017E58004FBFC540F94
:10007800B40A087410FCEB54F02CFC8C800200A825
:10008800E58014FBFC540FB40F087409FCEB54F022
:100098002CFC8C800200C57E027F01DFFEDEFA2286
:0F00A80075A0F675B06F12009F75A0FF75B0FFC1
:0E00B70012009F75A00075B00012009F010698
:0F00C50075A0F075B00F12009F75A0FF75B0FF0A
:0E00D40012009F75A00075B00012009F01067B
:0F00E20075A0A575B0A512009F75A05A75B05AEC
:1000F10012009F75A00075B00012009F2275A069C3
:0501010075B09680F8C6
:00000001FF
