:100000007F031200B212008A75A0FF120053E58030
:10001000B400030200C71A0DEA2DFAE590B400F609
:1000200074804AFA8AA0120053A8A075A0FFE59038
:0F003000F5A03097F9E8B5A00DEF04FF12009D81
:0F003F0080CA8C8002005CEF14FF12009D80BD10
:0E004E008C800200707E027F01DFFEDEFA224F
:0F005C0075A0F612005375A0FF12005375A00097
:0E006B00120053809B75A0FF12005375A00079
:0F00790012005375A0FF12005375A00012005320
:0E008800808175A0AA12005375A05512005376
:0E00960075A0AA12005322BF00040200C72268
:0E00A400BF010475800622BF020475805B2236
:0E00B200BF030475804F22BF040475806622D0
:0C00C000BF050475806D2275A0FF80FB59
:00000001FF
