:0E00000075B0017F031200B412008975A0FFD5
:0F000E00120052EFB400030200C91A0DEA2DFAD6
:10001D00E590B400F6EA8AA0120052A8A075A0FFE0
:0E002D00E590F5A03097F9E8B5A00DEF04FFBF
:10003B0012009C80CE8C8002005BEF14FF12009CA0
:10004B0080C18C8002006F7D027E01DEFEDDFA2214
:0F005B0075A0F612005275A0FF12005275A0009A
:0E006A00120052809F75A0FF12005275A00078
:0F00780012005275A0FF12005275A00012005224
:0E008700808575A0AA12005275A05512005275
:1000950075A0AA12005222BF000775803F0200C951
:0F00A50022BF010475800622BF020475805B2212
:0E00B400BF030475804F22BF040475806622CE
:0A00C200BF050475806D220200C91D
:00000001FF
